{"abi":[{"inputs":[{"internalType":"uint256","name":"amount","type":"uint256"}],"name":"contributes","outputs":[],"stateMutability":"payable","type":"function"}],"devdoc":{"kind":"dev","methods":{},"version":1},"evm":{"assembly":"    /* \"PaymentContract.sol\":60:466  contract PaymentContract{... */\n  mstore(0x40, 0x80)\n    /* \"PaymentContract.sol\":135:177  0x2AC54F3F019bEE838A6EefFCf3fD8ecFE45BB91c */\n  0x2ac54f3f019bee838a6eeffcf3fd8ecfe45bb91c\n    /* \"PaymentContract.sol\":91:178  address payable permanentRecipient =payable(0x2AC54F3F019bEE838A6EefFCf3fD8ecFE45BB91c) */\n  0x00\n  dup1\n  0x0100\n  exp\n  dup2\n  sload\n  dup2\n  0xffffffffffffffffffffffffffffffffffffffff\n  mul\n  not\n  and\n  swap1\n  dup4\n  0xffffffffffffffffffffffffffffffffffffffff\n  and\n  mul\n  or\n  swap1\n  sstore\n  pop\n    /* \"PaymentContract.sol\":60:466  contract PaymentContract{... */\n  callvalue\n  dup1\n  iszero\n  tag_1\n  jumpi\n  0x00\n  dup1\n  revert\ntag_1:\n  pop\n  dataSize(sub_0)\n  dup1\n  dataOffset(sub_0)\n  0x00\n  codecopy\n  0x00\n  return\nstop\n\nsub_0: assembly {\n        /* \"PaymentContract.sol\":60:466  contract PaymentContract{... */\n      mstore(0x40, 0x80)\n      jumpi(tag_1, lt(calldatasize, 0x04))\n      shr(0xe0, calldataload(0x00))\n      dup1\n      0x1cd1e4c5\n      eq\n      tag_2\n      jumpi\n    tag_1:\n      0x00\n      dup1\n      revert\n        /* \"PaymentContract.sol\":186:463  function contributes(uint256 amount) public payable {... */\n    tag_2:\n      tag_3\n      0x04\n      dup1\n      calldatasize\n      sub\n      dup2\n      add\n      swap1\n      tag_4\n      swap2\n      swap1\n      tag_5\n      jump\t// in\n    tag_4:\n      tag_6\n      jump\t// in\n    tag_3:\n      stop\n    tag_6:\n        /* \"PaymentContract.sol\":270:276  amount */\n      dup1\n        /* \"PaymentContract.sol\":257:266  msg.value */\n      callvalue\n        /* \"PaymentContract.sol\":257:276  msg.value == amount */\n      eq\n        /* \"PaymentContract.sol\":249:323  require(msg.value == amount, \"Sent value must match the specified amount\") */\n      tag_8\n      jumpi\n      mload(0x40)\n      0x08c379a000000000000000000000000000000000000000000000000000000000\n      dup2\n      mstore\n      0x04\n      add\n      tag_9\n      swap1\n      tag_10\n      jump\t// in\n    tag_9:\n      mload(0x40)\n      dup1\n      swap2\n      sub\n      swap1\n      revert\n    tag_8:\n        /* \"PaymentContract.sol\":420:438  permanentRecipient */\n      0x00\n      dup1\n      sload\n      swap1\n      0x0100\n      exp\n      swap1\n      div\n      0xffffffffffffffffffffffffffffffffffffffff\n      and\n        /* \"PaymentContract.sol\":420:447  permanentRecipient.transfer */\n      0xffffffffffffffffffffffffffffffffffffffff\n      and\n        /* \"PaymentContract.sol\":420:455  permanentRecipient.transfer(amount) */\n      0x08fc\n        /* \"PaymentContract.sol\":448:454  amount */\n      dup3\n        /* \"PaymentContract.sol\":420:455  permanentRecipient.transfer(amount) */\n      swap1\n      dup2\n      iszero\n      mul\n      swap1\n      mload(0x40)\n      0x00\n      mload(0x40)\n      dup1\n      dup4\n      sub\n      dup2\n      dup6\n      dup9\n      dup9\n      call\n      swap4\n      pop\n      pop\n      pop\n      pop\n      iszero\n      dup1\n      iszero\n      tag_12\n      jumpi\n      returndatasize\n      0x00\n      dup1\n      returndatacopy\n      revert(0x00, returndatasize)\n    tag_12:\n      pop\n        /* \"PaymentContract.sol\":186:463  function contributes(uint256 amount) public payable {... */\n      pop\n      jump\t// out\n        /* \"#utility.yul\":88:205   */\n    tag_14:\n        /* \"#utility.yul\":197:198   */\n      0x00\n        /* \"#utility.yul\":194:195   */\n      dup1\n        /* \"#utility.yul\":187:199   */\n      revert\n        /* \"#utility.yul\":334:411   */\n    tag_16:\n        /* \"#utility.yul\":371:378   */\n      0x00\n        /* \"#utility.yul\":400:405   */\n      dup2\n        /* \"#utility.yul\":389:405   */\n      swap1\n      pop\n        /* \"#utility.yul\":334:411   */\n      swap2\n      swap1\n      pop\n      jump\t// out\n        /* \"#utility.yul\":417:539   */\n    tag_17:\n        /* \"#utility.yul\":490:514   */\n      tag_28\n        /* \"#utility.yul\":508:513   */\n      dup2\n        /* \"#utility.yul\":490:514   */\n      tag_16\n      jump\t// in\n    tag_28:\n        /* \"#utility.yul\":483:488   */\n      dup2\n        /* \"#utility.yul\":480:515   */\n      eq\n        /* \"#utility.yul\":470:533   */\n      tag_29\n      jumpi\n        /* \"#utility.yul\":529:530   */\n      0x00\n        /* \"#utility.yul\":526:527   */\n      dup1\n        /* \"#utility.yul\":519:531   */\n      revert\n        /* \"#utility.yul\":470:533   */\n    tag_29:\n        /* \"#utility.yul\":417:539   */\n      pop\n      jump\t// out\n        /* \"#utility.yul\":545:684   */\n    tag_18:\n        /* \"#utility.yul\":591:596   */\n      0x00\n        /* \"#utility.yul\":629:635   */\n      dup2\n        /* \"#utility.yul\":616:636   */\n      calldataload\n        /* \"#utility.yul\":607:636   */\n      swap1\n      pop\n        /* \"#utility.yul\":645:678   */\n      tag_31\n        /* \"#utility.yul\":672:677   */\n      dup2\n        /* \"#utility.yul\":645:678   */\n      tag_17\n      jump\t// in\n    tag_31:\n        /* \"#utility.yul\":545:684   */\n      swap3\n      swap2\n      pop\n      pop\n      jump\t// out\n        /* \"#utility.yul\":690:1019   */\n    tag_5:\n        /* \"#utility.yul\":749:755   */\n      0x00\n        /* \"#utility.yul\":798:800   */\n      0x20\n        /* \"#utility.yul\":786:795   */\n      dup3\n        /* \"#utility.yul\":777:784   */\n      dup5\n        /* \"#utility.yul\":773:796   */\n      sub\n        /* \"#utility.yul\":769:801   */\n      slt\n        /* \"#utility.yul\":766:885   */\n      iszero\n      tag_33\n      jumpi\n        /* \"#utility.yul\":804:883   */\n      tag_34\n      tag_14\n      jump\t// in\n    tag_34:\n        /* \"#utility.yul\":766:885   */\n    tag_33:\n        /* \"#utility.yul\":924:925   */\n      0x00\n        /* \"#utility.yul\":949:1002   */\n      tag_35\n        /* \"#utility.yul\":994:1001   */\n      dup5\n        /* \"#utility.yul\":985:991   */\n      dup3\n        /* \"#utility.yul\":974:983   */\n      dup6\n        /* \"#utility.yul\":970:992   */\n      add\n        /* \"#utility.yul\":949:1002   */\n      tag_18\n      jump\t// in\n    tag_35:\n        /* \"#utility.yul\":939:1002   */\n      swap2\n      pop\n        /* \"#utility.yul\":895:1012   */\n      pop\n        /* \"#utility.yul\":690:1019   */\n      swap3\n      swap2\n      pop\n      pop\n      jump\t// out\n        /* \"#utility.yul\":1025:1194   */\n    tag_19:\n        /* \"#utility.yul\":1109:1120   */\n      0x00\n        /* \"#utility.yul\":1143:1149   */\n      dup3\n        /* \"#utility.yul\":1138:1141   */\n      dup3\n        /* \"#utility.yul\":1131:1150   */\n      mstore\n        /* \"#utility.yul\":1183:1187   */\n      0x20\n        /* \"#utility.yul\":1178:1181   */\n      dup3\n        /* \"#utility.yul\":1174:1188   */\n      add\n        /* \"#utility.yul\":1159:1188   */\n      swap1\n      pop\n        /* \"#utility.yul\":1025:1194   */\n      swap3\n      swap2\n      pop\n      pop\n      jump\t// out\n        /* \"#utility.yul\":1200:1429   */\n    tag_20:\n        /* \"#utility.yul\":1340:1374   */\n      0x53656e742076616c7565206d757374206d617463682074686520737065636966\n        /* \"#utility.yul\":1336:1337   */\n      0x00\n        /* \"#utility.yul\":1328:1334   */\n      dup3\n        /* \"#utility.yul\":1324:1338   */\n      add\n        /* \"#utility.yul\":1317:1375   */\n      mstore\n        /* \"#utility.yul\":1409:1421   */\n      0x69656420616d6f756e7400000000000000000000000000000000000000000000\n        /* \"#utility.yul\":1404:1406   */\n      0x20\n        /* \"#utility.yul\":1396:1402   */\n      dup3\n        /* \"#utility.yul\":1392:1407   */\n      add\n        /* \"#utility.yul\":1385:1422   */\n      mstore\n        /* \"#utility.yul\":1200:1429   */\n      pop\n      jump\t// out\n        /* \"#utility.yul\":1435:1801   */\n    tag_21:\n        /* \"#utility.yul\":1577:1580   */\n      0x00\n        /* \"#utility.yul\":1598:1665   */\n      tag_39\n        /* \"#utility.yul\":1662:1664   */\n      0x2a\n        /* \"#utility.yul\":1657:1660   */\n      dup4\n        /* \"#utility.yul\":1598:1665   */\n      tag_19\n      jump\t// in\n    tag_39:\n        /* \"#utility.yul\":1591:1665   */\n      swap2\n      pop\n        /* \"#utility.yul\":1674:1767   */\n      tag_40\n        /* \"#utility.yul\":1763:1766   */\n      dup3\n        /* \"#utility.yul\":1674:1767   */\n      tag_20\n      jump\t// in\n    tag_40:\n        /* \"#utility.yul\":1792:1794   */\n      0x40\n        /* \"#utility.yul\":1787:1790   */\n      dup3\n        /* \"#utility.yul\":1783:1795   */\n      add\n        /* \"#utility.yul\":1776:1795   */\n      swap1\n      pop\n        /* \"#utility.yul\":1435:1801   */\n      swap2\n      swap1\n      pop\n      jump\t// out\n        /* \"#utility.yul\":1807:2226   */\n    tag_10:\n        /* \"#utility.yul\":1973:1977   */\n      0x00\n        /* \"#utility.yul\":2011:2013   */\n      0x20\n        /* \"#utility.yul\":2000:2009   */\n      dup3\n        /* \"#utility.yul\":1996:2014   */\n      add\n        /* \"#utility.yul\":1988:2014   */\n      swap1\n      pop\n        /* \"#utility.yul\":2060:2069   */\n      dup2\n        /* \"#utility.yul\":2054:2058   */\n      dup2\n        /* \"#utility.yul\":2050:2070   */\n      sub\n        /* \"#utility.yul\":2046:2047   */\n      0x00\n        /* \"#utility.yul\":2035:2044   */\n      dup4\n        /* \"#utility.yul\":2031:2048   */\n      add\n        /* \"#utility.yul\":2024:2071   */\n      mstore\n        /* \"#utility.yul\":2088:2219   */\n      tag_42\n        /* \"#utility.yul\":2214:2218   */\n      dup2\n        /* \"#utility.yul\":2088:2219   */\n      tag_21\n      jump\t// in\n    tag_42:\n        /* \"#utility.yul\":2080:2219   */\n      swap1\n      pop\n        /* \"#utility.yul\":1807:2226   */\n      swap2\n      swap1\n      pop\n      jump\t// out\n\n    auxdata: 0xa26469706673582212202ceda9ce2ac0a61dd7ee1195516d1b416a0acd744f3b4c9447362c8878a129e964736f6c63430008090033\n}\n","bytecode":{"linkReferences":{},"object":"6080604052732ac54f3f019bee838a6eeffcf3fd8ecfe45bb91c6000806101000a81548173ffffffffffffffffffffffffffffffffffffffff021916908373ffffffffffffffffffffffffffffffffffffffff16021790555034801561006457600080fd5b5061022c806100746000396000f3fe60806040526004361061001e5760003560e01c80631cd1e4c514610023575b600080fd5b61003d60048036038101906100389190610126565b61003f565b005b803414610081576040517f08c379a0000000000000000000000000000000000000000000000000000000008152600401610078906101d6565b60405180910390fd5b60008054906101000a900473ffffffffffffffffffffffffffffffffffffffff1673ffffffffffffffffffffffffffffffffffffffff166108fc829081150290604051600060405180830381858888f193505050501580156100e7573d6000803e3d6000fd5b5050565b600080fd5b6000819050919050565b610103816100f0565b811461010e57600080fd5b50565b600081359050610120816100fa565b92915050565b60006020828403121561013c5761013b6100eb565b5b600061014a84828501610111565b91505092915050565b600082825260208201905092915050565b7f53656e742076616c7565206d757374206d61746368207468652073706563696660008201527f69656420616d6f756e7400000000000000000000000000000000000000000000602082015250565b60006101c0602a83610153565b91506101cb82610164565b604082019050919050565b600060208201905081810360008301526101ef816101b3565b905091905056fea26469706673582212202ceda9ce2ac0a61dd7ee1195516d1b416a0acd744f3b4c9447362c8878a129e964736f6c63430008090033","opcodes":"PUSH1 0x80 PUSH1 0x40 MSTORE PUSH20 0x2AC54F3F019BEE838A6EEFFCF3FD8ECFE45BB91C PUSH1 0x0 DUP1 PUSH2 0x100 EXP DUP2 SLOAD DUP2 PUSH20 0xFFFFFFFFFFFFFFFFFFFFFFFFFFFFFFFFFFFFFFFF MUL NOT AND SWAP1 DUP4 PUSH20 0xFFFFFFFFFFFFFFFFFFFFFFFFFFFFFFFFFFFFFFFF AND MUL OR SWAP1 SSTORE POP CALLVALUE DUP1 ISZERO PUSH2 0x64 JUMPI PUSH1 0x0 DUP1 REVERT JUMPDEST POP PUSH2 0x22C DUP1 PUSH2 0x74 PUSH1 0x0 CODECOPY PUSH1 0x0 RETURN INVALID PUSH1 0x80 PUSH1 0x40 MSTORE PUSH1 0x4 CALLDATASIZE LT PUSH2 0x1E JUMPI PUSH1 0x0 CALLDATALOAD PUSH1 0xE0 SHR DUP1 PUSH4 0x1CD1E4C5 EQ PUSH2 0x23 JUMPI JUMPDEST PUSH1 0x0 DUP1 REVERT JUMPDEST PUSH2 0x3D PUSH1 0x4 DUP1 CALLDATASIZE SUB DUP2 ADD SWAP1 PUSH2 0x38 SWAP2 SWAP1 PUSH2 0x126 JUMP JUMPDEST PUSH2 0x3F JUMP JUMPDEST STOP JUMPDEST DUP1 CALLVALUE EQ PUSH2 0x81 JUMPI PUSH1 0x40 MLOAD PUSH32 0x8C379A000000000000000000000000000000000000000000000000000000000 DUP2 MSTORE PUSH1 0x4 ADD PUSH2 0x78 SWAP1 PUSH2 0x1D6 JUMP JUMPDEST PUSH1 0x40 MLOAD DUP1 SWAP2 SUB SWAP1 REVERT JUMPDEST PUSH1 0x0 DUP1 SLOAD SWAP1 PUSH2 0x100 EXP SWAP1 DIV PUSH20 0xFFFFFFFFFFFFFFFFFFFFFFFFFFFFFFFFFFFFFFFF AND PUSH20 0xFFFFFFFFFFFFFFFFFFFFFFFFFFFFFFFFFFFFFFFF AND PUSH2 0x8FC DUP3 SWAP1 DUP2 ISZERO MUL SWAP1 PUSH1 0x40 MLOAD PUSH1 0x0 PUSH1 0x40 MLOAD DUP1 DUP4 SUB DUP2 DUP6 DUP9 DUP9 CALL SWAP4 POP POP POP POP ISZERO DUP1 ISZERO PUSH2 0xE7 JUMPI RETURNDATASIZE PUSH1 0x0 DUP1 RETURNDATACOPY RETURNDATASIZE PUSH1 0x0 REVERT JUMPDEST POP POP JUMP JUMPDEST PUSH1 0x0 DUP1 REVERT JUMPDEST PUSH1 0x0 DUP2 SWAP1 POP SWAP2 SWAP1 POP JUMP JUMPDEST PUSH2 0x103 DUP2 PUSH2 0xF0 JUMP JUMPDEST DUP2 EQ PUSH2 0x10E JUMPI PUSH1 0x0 DUP1 REVERT JUMPDEST POP JUMP JUMPDEST PUSH1 0x0 DUP2 CALLDATALOAD SWAP1 POP PUSH2 0x120 DUP2 PUSH2 0xFA JUMP JUMPDEST SWAP3 SWAP2 POP POP JUMP JUMPDEST PUSH1 0x0 PUSH1 0x20 DUP3 DUP5 SUB SLT ISZERO PUSH2 0x13C JUMPI PUSH2 0x13B PUSH2 0xEB JUMP JUMPDEST JUMPDEST PUSH1 0x0 PUSH2 0x14A DUP5 DUP3 DUP6 ADD PUSH2 0x111 JUMP JUMPDEST SWAP2 POP POP SWAP3 SWAP2 POP POP JUMP JUMPDEST PUSH1 0x0 DUP3 DUP3 MSTORE PUSH1 0x20 DUP3 ADD SWAP1 POP SWAP3 SWAP2 POP POP JUMP JUMPDEST PUSH32 0x53656E742076616C7565206D757374206D617463682074686520737065636966 PUSH1 0x0 DUP3 ADD MSTORE PUSH32 0x69656420616D6F756E7400000000000000000000000000000000000000000000 PUSH1 0x20 DUP3 ADD MSTORE POP JUMP JUMPDEST PUSH1 0x0 PUSH2 0x1C0 PUSH1 0x2A DUP4 PUSH2 0x153 JUMP JUMPDEST SWAP2 POP PUSH2 0x1CB DUP3 PUSH2 0x164 JUMP JUMPDEST PUSH1 0x40 DUP3 ADD SWAP1 POP SWAP2 SWAP1 POP JUMP JUMPDEST PUSH1 0x0 PUSH1 0x20 DUP3 ADD SWAP1 POP DUP2 DUP2 SUB PUSH1 0x0 DUP4 ADD MSTORE PUSH2 0x1EF DUP2 PUSH2 0x1B3 JUMP JUMPDEST SWAP1 POP SWAP2 SWAP1 POP JUMP INVALID LOG2 PUSH5 0x6970667358 0x22 SLT KECCAK256 0x2C 0xED 0xA9 0xCE 0x2A 0xC0 0xA6 SAR 0xD7 0xEE GT SWAP6 MLOAD PUSH14 0x1B416A0ACD744F3B4C9447362C88 PUSH25 0xA129E964736F6C634300080900330000000000000000000000 "},"gasEstimates":{"creation":{"codeDepositCost":"111200","executionCost":"24426","totalCost":"135626"},"external":{"contributes(uint256)":"infinite"}},"methodIdentifiers":{"contributes(uint256)":"1cd1e4c5"}},"storageLayout":{"storage":[{"astId":7,"contract":"PaymentContract.sol:PaymentContract","label":"permanentRecipient","offset":0,"slot":"0","type":"t_address_payable"}],"types":{"t_address_payable":{"encoding":"inplace","label":"address payable","numberOfBytes":"20"}}},"userdoc":{"kind":"user","methods":{},"version":1}}